:1000000020C03AC039C02EC466C3FFC3A4C3D0C346
:1000100035C3E1C256C030C02FC02EC0E5C02CC0D1
:100020002BC02AC029C000000100080020004000A9
:1000300080000001000400000100080040000001F1
:10004000000411241FBECFE5D4E0DEBFCDBF10E019
:10005000A0E6B0E0E0EDFAE002C005900D92A43613
:10006000B107D9F720E0A4E6B0E001C01D92A538A1
:10007000B207E1F724D42AC5C3CF979A969A959AE6
:10008000882331F0833021F0843011F0863009F478
:1000900097988130A1F0853049F0843039F086306E
:1000A00029F0823051F0833041F0089596988530E0
:1000B00021F0833011F08630C1F795980895969815
:1000C00008951F920F920FB60F9211242F933F9312
:1000D0004F935F936F937F938F939F93AF93BF9350
:1000E0002FB130E0A0E8BCE0C7D4BB27A92F982FE0
:1000F000872F893B2BE0920714F088EB9BE09093CD
:10010000650080936400BF91AF919F918F917F9123
:100110006F915F914F913F912F910F900FBE0F9074
:100120001F901895C1989498B99A939A929A8F9A19
:100130008E9A8D9A979A969A959A0FD0BDD081E013
:10014000DBD080E89CE0F8D11DD2BC9A6A9A6E9A06
:100150006F9A81E092DF78940895379A359886B146
:10016000887F866086B987B18F73806487B93D9830
:10017000339A1092780078940895339837980895B8
:1001800096B1987F982B96B9089527B130E4839F54
:10019000C00111242F73282B27B9089597B18F71AF
:1001A000907E892B87B90895349A369A089586B13E
:1001B000807408951092780097B18F71907E892B8A
:1001C00087B9349A369A3699FECF24B135B1932F38
:1001D00080E0AC01422B9A01C9010895EBDF9695AE
:1001E00087959695879508951F920F920FB60F9257
:1001F00011248F938FEF809378008F910F900FBE13
:100200000F901F901895089510926B0010926A003D
:1002100010926D0010926C0010926F0010926E00A0
:100220001092710010927000109273001092720080
:100230001092750010927400109277001092760060
:1002400083B7887F826083BF12BE89B7816089BF10
:100250001092790010927A0010927B0010927C002C
:100260008EB5887F83608EBD1DBC1CBC89B7846041
:1002700089BF85B5887F846085BD14BC89B78064DB
:1002800089BF109281001092820010928300109218
:1002900084007894089583B7887F826083BF12BEFC
:1002A00089B7816089BF1092790010927A0010920C
:1002B0007B0010927C0008958EB5887F83608EBD90
:1002C0001DBC1CBC89B7846089BF089585B5887F33
:1002D000846085BD14BC89B7806489BF1092810099
:1002E000109282001092830010928400089593B7B8
:1002F000987F982B93BF08959EB5987F982B9EBDAD
:10030000089595B5987F982B95BD0895E3B7E7704C
:10031000F0E0EE0FFF1FEA5CFF4F25913491C90119
:100320000895EEB5E770F0E0EE0FFF1FEA5CFF4FB7
:1003300025913491C9010895E5B5E770F0E0EE0F1D
:10034000FF1FEA5DFF4F25913491C9010895873061
:1003500040F4E82FF0E0EE0FFF1FE659FF4F7183E6
:1003600060830895873040F4E82FF0E0EE0FFF1F20
:10037000E659FF4F118210820895CF92DF92EF92DB
:10038000FF920F931F93CF93DF93EC0112B710925C
:100390007D0010927E0010927F0010928000E3B7E3
:1003A000E770F0E0EE0FFF1FEA5CFF4F25913491FC
:1003B00040E050E060E072E18AE790E042D3293B00
:1003C0008DE8380786E04807510528F4C13187E2F7
:1003D000D80708F454C0CA01B90128EE33E040E060
:1003E00050E00DD3DE0154D39B01AC0180917D0020
:1003F00090917E00A0917F00B091800062B769016A
:100400007A01C10ED11CE11CF11C97018601BA2FA3
:10041000A92F982F8827862B8C159D05AE05BF0523
:1004200028F580917D0090917E00A0917F00B09191
:10043000800085B78F7885BF85B7806885BF889530
:1004400085B78F7785BF80917D0090917E00A091C8
:100450007F00B091800062B7BA2FA92F982F88270C
:10046000862B80179107A207B307D8F2DF91CF91AF
:100470001F910F91FF90EF90DF90CF900895DE01D4
:1004800007D328EE33E040E050E0B9D2AFCF10926E
:10049000790010927A0010927B0010927C000895EF
:1004A0000F931F930091790010917A0020917B00A7
:1004B00030917C00B801C9011F910F9108951092ED
:1004C000810010928200109283001092840008959F
:1004D0000F931F930091810010918200209183005F
:1004E00030918400B801C9011F910F91089589309E
:1004F00069F08A30B1F08FB58D7F8FBD8FB5816087
:100500008FBD1BBC1ABC19BC18BC08958FB5826086
:100510008FBD8FB58E7F8FBD1BBC1ABC19BC18BC9C
:1005200008958FB582608FBD8FB581608FBD1BBC74
:100530001ABC19BC18BC08952FB52E7F2FBD2FB53E
:1005400022602FBD2EB528602EBD2EB520612EBD98
:1005500097BD86BD1BBC1ABC19BC18BC08958FB5CD
:100560008D7F8FBD8FB58E7F8FBD8FB58F778FBD00
:100570008FB58F7B8FBD8FB58F7D8FBD8FB58F7EF4
:100580008FBD08958FB580688FBD8FB58F7B8FBD70
:1005900008958FB580688FBD8FB58F7B8FBD08950F
:1005A0008FB580628FBD8FB58F7E8FBD08958FB55B
:1005B0008F778FBD8FB58F7B8FBD08958FB58F7D62
:1005C0008FBD8FB58F7E8FBD08959BBD8ABD089569
:1005D00099BD88BD08951F920F920FB60F921124F6
:1005E0002F933F934F935F936F937F938F939F933B
:1005F000AF93BF93EF93FF938091790090917A002E
:10060000A0917B00B0917C000196A11DB11D80934B
:10061000790090937A00A0937B00B0937C00809146
:100620007D0090917E00A0917F00B09180000196A6
:10063000A11DB11D80937D0090937E00A0937F004B
:10064000B093800080916A0090916B00892B29F013
:10065000E0916A00F0916B000995FF91EF91BF91D5
:10066000AF919F918F917F916F915F914F913F914A
:100670002F910F900FBE0F901F9018951F920F9201
:100680000FB60F9211242F933F934F935F936F9365
:100690007F938F939F93AF93BF93EF93FF9380913B
:1006A0006C0090916D00892B29F0E0916C00F09125
:1006B0006D000995FF91EF91BF91AF919F918F913F
:1006C0007F916F915F914F913F912F910F900FBE4E
:1006D0000F901F9018951F920F920FB60F92112432
:1006E0002F933F934F935F936F937F938F939F933A
:1006F000AF93BF93EF93FF9380918100909182001D
:10070000A0918300B09184000196A11DB11D80933A
:10071000810090938200A0938300B0938400809125
:10072000740090917500892B29F0E0917400F0918C
:1007300075000995FF91EF91BF91AF919F918F91B6
:100740007F916F915F914F913F912F910F900FBECD
:100750000F901F9018951F920F920FB60F921124B1
:100760002F933F934F935F936F937F938F939F93B9
:10077000AF93BF93EF93FF9380916E0090916F00C2
:10078000892B29F0E0916E00F0916F000995FF919F
:10079000EF91BF91AF919F918F917F916F915F91F9
:1007A0004F913F912F910F900FBE0F901F90189572
:1007B0001F920F920FB60F9211242F933F934F93D6
:1007C0005F936F937F938F939F93AF93BF93EF93B9
:1007D000FF938091700090917100892B29F0E09136
:1007E0007000F09171000995FF91EF91BF91AF9169
:1007F0009F918F917F916F915F914F913F912F9139
:100800000F900FBE0F901F9018951F920F920FB66A
:100810000F9211242F933F934F935F936F937F9386
:100820008F939F93AF93BF93EF93FF938091720049
:1008300090917300892B29F0E0917200F091730080
:100840000995FF91EF91BF91AF919F918F917F910A
:100850006F915F914F913F912F910F900FBE0F902D
:100860001F9018951F920F920FB60F9211242F937D
:100870003F934F935F936F937F938F939F93AF9328
:10088000BF93EF93FF938091760090917700892B2F
:1008900029F0E0917600F09177000995FF91EF91B2
:1008A000BF91AF919F918F917F916F915F914F9188
:1008B0003F912F910F900FBE0F901F90189532DC33
:1008C00035EDE32EFF24F3940AE010E0C0E8DCE00D
:1008D000839B6AC0829925C0A0906400B090650097
:1008E000829B07C01CC0CE018A199B096EDE8299CB
:1008F00016C083E0C2DB81E05DDC9701281B390B69
:10090000C901B80169D0A60EB71EB7FEECCFA12C65
:10091000B12CCE018A199B0958DE829BEACF81E077
:10092000ACDB81E047DC9C01AC014C5652406627B1
:1009300057FD6095762F8091660090916700A09199
:100940006800B0916900480F591F6A1F7B1F77FD2F
:1009500033C04093660050936700609368007093C3
:1009600069008090600090906100A0906200B0905B
:10097000630084169506A606B7061CF021303340A6
:100980003CF18C9A82E079DB809164009091650063
:100990009E01281B390BC90118DE9ACF8C9A80E082
:1009A0006CDB84E690E02FDC839BF8CF829BF6CF54
:1009B0008C9881E062DB8ECF109266001092670007
:1009C000109268001092690040E050E0BA01C9CF6F
:1009D0008C9881E052DBD8CF97FB072E16F4009459
:1009E00006D077FD08D05ED007FC05D03EF4909588
:1009F00081959F4F0895709561957F4F0895A1E26D
:100A00001A2EAA1BBB1BFD010DC0AA1FBB1FEE1F88
:100A1000FF1FA217B307E407F50720F0A21BB30BD3
:100A2000E40BF50B661F771F881F991F1A9469F74F
:100A300060957095809590959B01AC01BD01CF01AB
:100A40000895052E97FB16F4009406D057FD0CD0A0
:100A5000D6DF07FC09D07EF490958095709561955E
:100A60007F4F8F4F9F4F089550954095309521951A
:100A70003F4F4F4F5F4F0895A29FB001B39FC001FA
:100A8000A39F01D0B29F700D811D1124911D089567
:100A9000F3DFA59F900DB49F900DA49F800D911D35
:100AA00011240895AA1BBB1B51E107C0AA1FBB1F3D
:100AB000A617B70710F0A61BB70B881F991F5A95EA
:100AC000A9F780959095BC01CD010895F894FFCFCA
:040AD00050C300000F
:00000001FF
